{
  "contractName": "Flashloan",
  "abi": [
    {
      "inputs": [
        {
          "internalType": "address",
          "name": "_addressProvider",
          "type": "address"
        }
      ],
      "stateMutability": "nonpayable",
      "type": "constructor"
    },
    {
      "anonymous": false,
      "inputs": [
        {
          "indexed": true,
          "internalType": "address",
          "name": "_from",
          "type": "address"
        },
        {
          "indexed": true,
          "internalType": "address",
          "name": "_assetAddress",
          "type": "address"
        },
        {
          "indexed": false,
          "internalType": "uint256",
          "name": "amount",
          "type": "uint256"
        }
      ],
      "name": "LogWithdraw",
      "type": "event"
    },
    {
      "anonymous": false,
      "inputs": [
        {
          "indexed": true,
          "internalType": "address",
          "name": "previousOwner",
          "type": "address"
        },
        {
          "indexed": true,
          "internalType": "address",
          "name": "newOwner",
          "type": "address"
        }
      ],
      "name": "OwnershipTransferred",
      "type": "event"
    },
    {
      "inputs": [],
      "name": "addressesProvider",
      "outputs": [
        {
          "internalType": "contract ILendingPoolAddressesProvider",
          "name": "",
          "type": "address"
        }
      ],
      "stateMutability": "view",
      "type": "function",
      "constant": true
    },
    {
      "inputs": [],
      "name": "owner",
      "outputs": [
        {
          "internalType": "address",
          "name": "",
          "type": "address"
        }
      ],
      "stateMutability": "view",
      "type": "function",
      "constant": true
    },
    {
      "inputs": [],
      "name": "renounceOwnership",
      "outputs": [],
      "stateMutability": "nonpayable",
      "type": "function"
    },
    {
      "inputs": [
        {
          "internalType": "address",
          "name": "newOwner",
          "type": "address"
        }
      ],
      "name": "transferOwnership",
      "outputs": [],
      "stateMutability": "nonpayable",
      "type": "function"
    },
    {
      "inputs": [
        {
          "internalType": "address",
          "name": "_assetAddress",
          "type": "address"
        }
      ],
      "name": "withdraw",
      "outputs": [],
      "stateMutability": "nonpayable",
      "type": "function"
    },
    {
      "stateMutability": "payable",
      "type": "receive",
      "payable": true
    },
    {
      "inputs": [
        {
          "internalType": "address",
          "name": "_reserve",
          "type": "address"
        },
        {
          "internalType": "uint256",
          "name": "_amount",
          "type": "uint256"
        },
        {
          "internalType": "uint256",
          "name": "_fee",
          "type": "uint256"
        },
        {
          "internalType": "bytes",
          "name": "_params",
          "type": "bytes"
        }
      ],
      "name": "executeOperation",
      "outputs": [],
      "stateMutability": "nonpayable",
      "type": "function"
    },
    {
      "inputs": [
        {
          "internalType": "address",
          "name": "_asset",
          "type": "address"
        }
      ],
      "name": "flashloan",
      "outputs": [],
      "stateMutability": "nonpayable",
      "type": "function"
    }
  ],
  "bytecode": "0x608060405234801561001057600080fd5b506040516116343803806116348339818101604052602081101561003357600080fd5b810190808051906020019092919050505080600061005561013b60201b60201c565b9050806000806101000a81548173ffffffffffffffffffffffffffffffffffffffff021916908373ffffffffffffffffffffffffffffffffffffffff1602179055508073ffffffffffffffffffffffffffffffffffffffff16600073ffffffffffffffffffffffffffffffffffffffff167f8be0079c531659141344cd1fd0a4f28419497f9722a3daafe3b4186f6b6457e060405160405180910390a35080600160006101000a81548173ffffffffffffffffffffffffffffffffffffffff021916908373ffffffffffffffffffffffffffffffffffffffff1602179055505050610143565b600033905090565b6114e2806101526000396000f3fe6080604052600436106100745760003560e01c80638da5cb5b1161004e5780638da5cb5b14610139578063c72c4d101461017a578063ee872558146101bb578063f2fde38b146102755761007b565b806336c404771461008057806351cff8d9146100d1578063715018a6146101225761007b565b3661007b57005b600080fd5b34801561008c57600080fd5b506100cf600480360360208110156100a357600080fd5b81019080803573ffffffffffffffffffffffffffffffffffffffff1690602001909291905050506102c6565b005b3480156100dd57600080fd5b50610120600480360360208110156100f457600080fd5b81019080803573ffffffffffffffffffffffffffffffffffffffff169060200190929190505050610557565b005b34801561012e57600080fd5b506101376107e1565b005b34801561014557600080fd5b5061014e61094e565b604051808273ffffffffffffffffffffffffffffffffffffffff16815260200191505060405180910390f35b34801561018657600080fd5b5061018f610977565b604051808273ffffffffffffffffffffffffffffffffffffffff16815260200191505060405180910390f35b3480156101c757600080fd5b50610273600480360360808110156101de57600080fd5b81019080803573ffffffffffffffffffffffffffffffffffffffff16906020019092919080359060200190929190803590602001909291908035906020019064010000000081111561022f57600080fd5b82018360208201111561024157600080fd5b8035906020019184600183028401116401000000008311171561026357600080fd5b909192939192939050505061099d565b005b34801561028157600080fd5b506102c46004803603602081101561029857600080fd5b81019080803573ffffffffffffffffffffffffffffffffffffffff169060200190929190505050610a28565b005b6102ce610c1a565b73ffffffffffffffffffffffffffffffffffffffff166102ec61094e565b73ffffffffffffffffffffffffffffffffffffffff1614610375576040517f08c379a00000000000000000000000000000000000000000000000000000000081526004018080602001828103825260208152602001807f4f776e61626c653a2063616c6c6572206973206e6f7420746865206f776e657281525060200191505060405180910390fd5b60606040518060200160405280600081525090506000670de0b6b3a764000090506000600160009054906101000a900473ffffffffffffffffffffffffffffffffffffffff1673ffffffffffffffffffffffffffffffffffffffff16630261bf8b6040518163ffffffff1660e01b815260040160206040518083038186803b15801561040057600080fd5b505afa158015610414573d6000803e3d6000fd5b505050506040513d602081101561042a57600080fd5b810190808051906020019092919050505090508073ffffffffffffffffffffffffffffffffffffffff16635cffe9de308685876040518563ffffffff1660e01b8152600401808573ffffffffffffffffffffffffffffffffffffffff1681526020018473ffffffffffffffffffffffffffffffffffffffff16815260200183815260200180602001828103825283818151815260200191508051906020019080838360005b838110156104ea5780820151818401526020810190506104cf565b50505050905090810190601f1680156105175780820380516001836020036101000a031916815260200191505b5095505050505050600060405180830381600087803b15801561053957600080fd5b505af115801561054d573d6000803e3d6000fd5b5050505050505050565b61055f610c1a565b73ffffffffffffffffffffffffffffffffffffffff1661057d61094e565b73ffffffffffffffffffffffffffffffffffffffff1614610606576040517f08c379a00000000000000000000000000000000000000000000000000000000081526004018080602001828103825260208152602001807f4f776e61626c653a2063616c6c6572206973206e6f7420746865206f776e657281525060200191505060405180910390fd5b60008073ffffffffffffffffffffffffffffffffffffffff168273ffffffffffffffffffffffffffffffffffffffff1614156106a85760003090508073ffffffffffffffffffffffffffffffffffffffff163191503373ffffffffffffffffffffffffffffffffffffffff166108fc839081150290604051600060405180830381858888f193505050501580156106a1573d6000803e3d6000fd5b5050610778565b8173ffffffffffffffffffffffffffffffffffffffff166370a08231306040518263ffffffff1660e01b8152600401808273ffffffffffffffffffffffffffffffffffffffff16815260200191505060206040518083038186803b15801561070f57600080fd5b505afa158015610723573d6000803e3d6000fd5b505050506040513d602081101561073957600080fd5b8101908080519060200190929190505050905061077733828473ffffffffffffffffffffffffffffffffffffffff16610c229092919063ffffffff16565b5b8173ffffffffffffffffffffffffffffffffffffffff163373ffffffffffffffffffffffffffffffffffffffff167f9207361cc2a04b9c7a06691df1eb87c6a63957ae88bf01d0d18c81e3d1272099836040518082815260200191505060405180910390a35050565b6107e9610c1a565b73ffffffffffffffffffffffffffffffffffffffff1661080761094e565b73ffffffffffffffffffffffffffffffffffffffff1614610890576040517f08c379a00000000000000000000000000000000000000000000000000000000081526004018080602001828103825260208152602001807f4f776e61626c653a2063616c6c6572206973206e6f7420746865206f776e657281525060200191505060405180910390fd5b600073ffffffffffffffffffffffffffffffffffffffff1660008054906101000a900473ffffffffffffffffffffffffffffffffffffffff1673ffffffffffffffffffffffffffffffffffffffff167f8be0079c531659141344cd1fd0a4f28419497f9722a3daafe3b4186f6b6457e060405160405180910390a360008060006101000a81548173ffffffffffffffffffffffffffffffffffffffff021916908373ffffffffffffffffffffffffffffffffffffffff160217905550565b60008060009054906101000a900473ffffffffffffffffffffffffffffffffffffffff16905090565b600160009054906101000a900473ffffffffffffffffffffffffffffffffffffffff1681565b6109a73086610cc4565b8411156109ff576040517f08c379a000000000000000000000000000000000000000000000000000000000815260040180806020018281038252602e815260200180611455602e913960400191505060405180910390fd5b6000610a148486610dd890919063ffffffff16565b9050610a208682610e60565b505050505050565b610a30610c1a565b73ffffffffffffffffffffffffffffffffffffffff16610a4e61094e565b73ffffffffffffffffffffffffffffffffffffffff1614610ad7576040517f08c379a00000000000000000000000000000000000000000000000000000000081526004018080602001828103825260208152602001807f4f776e61626c653a2063616c6c6572206973206e6f7420746865206f776e657281525060200191505060405180910390fd5b600073ffffffffffffffffffffffffffffffffffffffff168173ffffffffffffffffffffffffffffffffffffffff161415610b5d576040517f08c379a00000000000000000000000000000000000000000000000000000000081526004018080602001828103825260268152602001806114096026913960400191505060405180910390fd5b8073ffffffffffffffffffffffffffffffffffffffff1660008054906101000a900473ffffffffffffffffffffffffffffffffffffffff1673ffffffffffffffffffffffffffffffffffffffff167f8be0079c531659141344cd1fd0a4f28419497f9722a3daafe3b4186f6b6457e060405160405180910390a3806000806101000a81548173ffffffffffffffffffffffffffffffffffffffff021916908373ffffffffffffffffffffffffffffffffffffffff16021790555050565b600033905090565b610cbf8363a9059cbb60e01b8484604051602401808373ffffffffffffffffffffffffffffffffffffffff16815260200182815260200192505050604051602081830303815290604052907bffffffffffffffffffffffffffffffffffffffffffffffffffffffff19166020820180517bffffffffffffffffffffffffffffffffffffffffffffffffffffffff8381831617835250505050610f17565b505050565b600073eeeeeeeeeeeeeeeeeeeeeeeeeeeeeeeeeeeeeeee73ffffffffffffffffffffffffffffffffffffffff168273ffffffffffffffffffffffffffffffffffffffff161415610d2d578273ffffffffffffffffffffffffffffffffffffffff16319050610dd2565b8173ffffffffffffffffffffffffffffffffffffffff166370a08231846040518263ffffffff1660e01b8152600401808273ffffffffffffffffffffffffffffffffffffffff16815260200191505060206040518083038186803b158015610d9457600080fd5b505afa158015610da8573d6000803e3d6000fd5b505050506040513d6020811015610dbe57600080fd5b810190808051906020019092919050505090505b92915050565b600080828401905083811015610e56576040517f08c379a000000000000000000000000000000000000000000000000000000000815260040180806020018281038252601b8152602001807f536166654d6174683a206164646974696f6e206f766572666c6f77000000000081525060200191505060405180910390fd5b8091505092915050565b6000600160009054906101000a900473ffffffffffffffffffffffffffffffffffffffff1673ffffffffffffffffffffffffffffffffffffffff1663ed6ff7606040518163ffffffff1660e01b815260040160206040518083038186803b158015610eca57600080fd5b505afa158015610ede573d6000803e3d6000fd5b505050506040513d6020811015610ef457600080fd5b81019080805190602001909291905050509050610f12818484611006565b505050565b6060610f79826040518060400160405280602081526020017f5361666545524332303a206c6f772d6c6576656c2063616c6c206661696c65648152508573ffffffffffffffffffffffffffffffffffffffff166111689092919063ffffffff16565b905060008151111561100157808060200190516020811015610f9a57600080fd5b8101908080519060200190929190505050611000576040517f08c379a000000000000000000000000000000000000000000000000000000000815260040180806020018281038252602a815260200180611483602a913960400191505060405180910390fd5b5b505050565b73eeeeeeeeeeeeeeeeeeeeeeeeeeeeeeeeeeeeeeee73ffffffffffffffffffffffffffffffffffffffff168273ffffffffffffffffffffffffffffffffffffffff1614156111375760008373ffffffffffffffffffffffffffffffffffffffff168260405180600001905060006040518083038185875af1925050503d80600081146110ae576040519150601f19603f3d011682016040523d82523d6000602084013e6110b3565b606091505b505090506001151581151514611131576040517f08c379a00000000000000000000000000000000000000000000000000000000081526004018080602001828103825260158152602001807f436f756c646e2774207472616e7366657220455448000000000000000000000081525060200191505060405180910390fd5b50611163565b61116283828473ffffffffffffffffffffffffffffffffffffffff16610c229092919063ffffffff16565b5b505050565b60606111778484600085611180565b90509392505050565b6060824710156111db576040517f08c379a000000000000000000000000000000000000000000000000000000000815260040180806020018281038252602681526020018061142f6026913960400191505060405180910390fd5b6111e485611329565b611256576040517f08c379a000000000000000000000000000000000000000000000000000000000815260040180806020018281038252601d8152602001807f416464726573733a2063616c6c20746f206e6f6e2d636f6e747261637400000081525060200191505060405180910390fd5b600060608673ffffffffffffffffffffffffffffffffffffffff1685876040518082805190602001908083835b602083106112a65780518252602082019150602081019050602083039250611283565b6001836020036101000a03801982511681845116808217855250505050505090500191505060006040518083038185875af1925050503d8060008114611308576040519150601f19603f3d011682016040523d82523d6000602084013e61130d565b606091505b509150915061131d82828661133c565b92505050949350505050565b600080823b905060008111915050919050565b6060831561134c57829050611401565b60008351111561135f5782518084602001fd5b816040517f08c379a00000000000000000000000000000000000000000000000000000000081526004018080602001828103825283818151815260200191508051906020019080838360005b838110156113c65780820151818401526020810190506113ab565b50505050905090810190601f1680156113f35780820380516001836020036101000a031916815260200191505b509250505060405180910390fd5b939250505056fe4f776e61626c653a206e6577206f776e657220697320746865207a65726f2061646472657373416464726573733a20696e73756666696369656e742062616c616e636520666f722063616c6c496e76616c69642062616c616e63652c207761732074686520666c6173684c6f616e207375636365737366756c3f5361666545524332303a204552433230206f7065726174696f6e20646964206e6f742073756363656564a2646970667358221220fa904276c7c69e4578a20b641291bbdce7c113dbef868a7c369fd19252e1789464736f6c634300060c0033",
  "immutableReferences": {},
  "source": "pragma solidity ^0.6.6;\n\nimport \"./aave/FlashLoanReceiverBase.sol\";\nimport \"./aave/ILendingPoolAddressesProvider.sol\";\nimport \"./aave/ILendingPool.sol\";\n\ncontract Flashloan is FlashLoanReceiverBase {\n\n    constructor(address _addressProvider) FlashLoanReceiverBase(_addressProvider) public {}\n\n    /**\n        This function is called after your contract has received the flash loaned amount\n     */\n    function executeOperation(\n        address _reserve,\n        uint256 _amount,\n        uint256 _fee,\n        bytes calldata _params\n    )\n        external\n        override\n    {\n        require(_amount <= getBalanceInternal(address(this), _reserve), \"Invalid balance, was the flashLoan successful?\");\n\n        //\n        // Your logic goes here.\n        // !! Ensure that *this contract* has enough of `_reserve` funds to payback the `_fee` !!\n        //\n\n        uint totalDebt = _amount.add(_fee);\n        transferFundsBackToPoolInternal(_reserve, totalDebt);\n    }\n\n    /**\n        Flash loan 1000000000000000000 wei (1 ether) worth of `_asset`\n     */\n    function flashloan(address _asset) public onlyOwner {\n        bytes memory data = \"\";\n        uint amount = 1 ether;\n\n        ILendingPool lendingPool = ILendingPool(addressesProvider.getLendingPool());\n        lendingPool.flashLoan(address(this), _asset, amount, data);\n    }\n}\n",
  "sourcePath": "/Users/zhaozhe/code/web3_examples/aave_v2_flashloan/contracts/Flashloan.sol",
  "compiler": {
    "name": "solc",
    "version": "0.6.12+commit.27d51765.Emscripten.clang"
  },
  "schemaVersion": "3.4.6",
  "updatedAt": "2022-04-23T19:16:54.551Z",
  "networkType": "ethereum",
  "devdoc": {
    "kind": "dev",
    "methods": {
      "owner()": {
        "details": "Returns the address of the current owner."
      },
      "renounceOwnership()": {
        "details": "Leaves the contract without owner. It will not be possible to call `onlyOwner` functions anymore. Can only be called by the current owner. NOTE: Renouncing ownership will leave the contract without an owner, thereby removing any functionality that is only available to the owner."
      },
      "transferOwnership(address)": {
        "details": "Transfers ownership of the contract to a new account (`newOwner`). Can only be called by the current owner."
      },
      "withdraw(address)": {
        "details": "Withdraw asset.",
        "params": {
          "_assetAddress": "Asset to be withdrawn."
        }
      }
    },
    "version": 1
  },
  "userdoc": {
    "kind": "user",
    "methods": {
      "executeOperation(address,uint256,uint256,bytes)": {
        "notice": "This function is called after your contract has received the flash loaned amount"
      },
      "flashloan(address)": {
        "notice": "Flash loan 1000000000000000000 wei (1 ether) worth of `_asset`"
      }
    },
    "version": 1
  }
}